:100000000C944D080C9494080C9494080C94940847
:100010000C9494080C9494080C9494080C949408F0
:100020000C9494080C9494080C947B300C944D31EF
:100030000C9408210C9494080C9494080C94940843
:100040000C9494080C9494080C9494080C949408C0
:100050000C9494080C947C210C9494080C949408AF
:100060000C9494080C9494080C9494080C949408A0
:100070000C9494080C9494080C9494080C94940890
:100080000C9494080C9494080C9494080C94940880
:100090000C9494080C9494080C9494080C94940870
:1000A0000C9494080C9494080C949408780E7A0E8E
:1000B000850E7C0E7E0E800E820E840E870E890EBB
:1000C0008B0E960E8D0E8F0E910E930E950E980E32
:1000D0005616561688168816BF16DF164E184E1876
:1000E00021174E18CE17CE173E184E184E18471827
:1000F000DB17DB17DB17DB17DB17DB17DB17DB1770
:10010000DB17DB17DB17DB17DB17DB17DB17DB175F
:10011000EC17F917001807181118D918D918EB1887
:10012000EB18E218EB18EB18EB18D918D918E718E8
:10013000EB18EB18E718BA31E131D332E131D332A1
:100140002D325032D332A632B5320A002530313644
:1001500062003A200025303258000A722F632030A6
:100160003132333435363738394142434445460A13
:100170000025640A0064657461636865640A00614F
:10018000747461636865640A00657870616E6465A3
:1001900072207374617475733A202564202E2E2E9C
:1001A00020006572676F636F6D707265737365644D
:1001B0002F70727A656D6F2D635F3832204020306A
:1001C0002E362E3138302D31302D676439343533A9
:1001D000612D646972747900687474703A2F2F729B
:1001E00065646469742E636F6D2F722F4D6563684B
:1001F000616E6963616C4B6579626F6172647300F3
:1002000040676D61696C2E636F6D0039322E313637
:10021000382E302E00011E021E0001290229000185
:10022000E001E10129022902E102E00001E00119F7
:10023000021902E00001E00106020602E0000000EF
:10024000F0A1033004301F002000210022002E0006
:100250000153230024002500260027002D00640000
:1002600014001A0008001500170001512F001C008F
:1002700018000C001200130030002B0004001600C0
:10028000070009000A00481865000B000D000E0069
:100290000F003300340002551D001B00060019003A
:1002A000050000071508110010003600370038005F
:1002B000125501553500003001300230045546001A
:1002C000480014555000510052004F0011550000D5
:1002D000E3004C002A0049004A004D004B004E004C
:1002E00039002C002800E70000000A303A003B00EB
:1002F0003C003D003E00010001003F004000410085
:1003000042004300440001001E021F022F0230027F
:1003100031020100010052002400250026002502C0
:1003200045000100200221022602270235000100BB
:10033000010051002100220023002E0201000100D3
:10034000220223022F0030003502010001002402A6
:100350001E001F002000310001000100010001000B
:10036000010001000100015C005C01000100370098
:1003700027002E0001000000010001000100010023
:100380000100010001000100010001000100010065
:100390000000010001000100010001000100010056
:1003A0000100010001000100010001000100010045
:1003B00001000100F0000100010001000100010046
:1003C0000100010001000100010001000100F20034
:1003D000F100F30001000100010001000100010033
:1003E00001000100AE000100010001000100010058
:1003F00001000100010001000100AC00AB000100A0
:100400000100010001000100F400F50001000100FD
:1004100001000100A900AA00A800010001000000DD
:1004200001000100010001000100010001000100C4
:100430000100B60001000100000044454255473A62
:1004400020656E61626C65642E0A00000000000089
:100450000000002A2B28000000000000000000001F
:1004600000000000000029000000002C1E342021A4
:100470002224342627252E362D3738271E1F2021EB
:1004800022232425263333362E37381F040506074A
:1004900008090A0B0C0D0E0F101112131415161764
:1004A00018191A1B1C1D2F3130232D350405060782
:1004B00008090A0B0C0D0E0F101112131415161744
:1004C00018191A1B1C1D2F3130354C00000000007C
:1004D000000000000000000000000000000000001C
:1004E0000000000000000000000000000101010108
:1004F00001010001010101000000000000000000F6
:1005000000000000000100010001010101010101E2
:1005100001010101010101010101010101010101CB
:1005200001010101010100000001010000000000C3
:1005300000000000000000000000000000000000BB
:1005400000000000000001010101000A0025303216
:100550005820006B6579626F6172645F7265706FBD
:1005600072743A20000A0025303258006B657962B7
:100570006F6172645F7365745F6C65643A200064D8
:10058000656C5F6B65795F6269743A2063616E27A1
:10059000742064656C3A20253032580A0061646426
:1005A0005F6B65795F6269743A2063616E277420BE
:1005B0006164643A20253032580A00646F6E652EFB
:1005C0000A00626F6F746D61676963207363616EA7
:1005D0003A202E2E2E2000290A002575002F0025F6
:1005E00075005D280025640020002564002000259A
:1005F000640020002564007C0025303258006D6FB7
:100600007573656B6579205B62746E7C78207920E8
:100610007620685D287265702F61636C293A205BD3
:10062000006D6B5F776865656C5F74696D655F749D
:100630006F5F6D6178203D2025640A006D6B5F77E8
:100640006865656C5F6D61785F7370656564203D9A
:100650002025640A006D6B5F74696D655F746F5F60
:100660006D6178203D2025640A006D6B5F6D6178B7
:100670005F7370656564203D2025640A006D6B5FC3
:10068000696E74657276616C203D2025640A006D88
:100690006B5F64656C6179203D2025640A006D6B99
:1006A0005F776865656C5F74696D655F746F5F6DBA
:1006B0006178203D2025640A006D6B5F7768656571
:1006C0006C5F6D61785F7370656564203D202564A3
:1006D0000A006D6B5F74696D655F746F5F6D617843
:1006E000203D2025640A006D6B5F6D61785F73703B
:1006F000656564203D2025640A006D6B5F696E743A
:10070000657276616C203D2025640A006D6B5F6424
:10071000656C6179203D2025640A000A002575007A
:10072000363A20776865656C5F74696D655F746FD4
:100730005F6D61783A20000A00257500353A207710
:100740006865656C5F6D61785F73706565643A209C
:10075000000A00257500343A2074696D655F746F76
:100760005F6D61783A20000A00257500333A206DEC
:1007700061785F73706565643A20000A0025750032
:10078000323A20696E74657276616C286D73293A0D
:1007900020000A00257500313A2064656C617928D3
:1007A0002A31306D73293A20000A092D2056616CD8
:1007B000756573202D0A004D3E004D25643E2000D6
:1007C0003F007365742064656661756C740A00434C
:1007D0003E200077686572652064656C74613A201C
:1007E000637572736F723D25642C20776865656C44
:1007F0003D25640A53656520687474703A2F2F652F
:100800006E2E77696B6970656469612E6F72672FF0
:1008100077696B692F4D6F7573655F6B6579730AC7
:10082000000A092D204D6F7573656B6579202D0ABF
:100830004553432F713A09717569740A313A096455
:10084000656C6179282A31306D73290A323A096959
:100850006E74657276616C286D73290A333A096D7E
:1008600061785F73706565640A343A0974696D650F
:100870005F746F5F6D61780A353A09776865656CFA
:100880005F6D61785F73706565640A363A097768F1
:1008900065656C5F74696D655F746F5F6D61780A23
:1008A0000A703A097072696E742076616C756573AE
:1008B0000A643A097365742064656661756C7473C3
:1008C0000A75703A092B310A646F776E3A092D3137
:1008D0000A706775703A092B31300A7067646F7758
:1008E0006E3A092D31300A0A7370656564203D2027
:1008F00064656C7461202A206D61785F7370656532
:1009000064202A2028726570656174202F20746924
:100910006D655F746F5F6D6178290A003F004D3E21
:100920002000433E20004C25640A0074696D657206
:100930005F72656164333228293A202530346C585F
:100940000A006B65796D61705F636F6E6669672E13
:100950006E6B726F3A2025580A006B6579626F6181
:1009600072645F69646C653A2025580A006B65798A
:10097000626F6172645F70726F746F636F6C3A2044
:1009800025580A00686F73745F6B6579626F6172D6
:10099000645F6C65647328293A2025580A000A09A7
:1009A0002D20537461747573202D0A004743433A18
:1009B00020342E392E32204156522D4C4942433A92
:1009C00020312E382E3073766E204156525F4152C0
:1009D00043483A20617672350A004F5054494F4ED1
:1009E000533A204C55464120424F4F544D414749C0
:1009F00043204D4F5553454B45592045585452417E
:100A00004B455920434F4E534F4C4520434F4D4D7E
:100A1000414E44204E4B524F20343039360A00426A
:100A200055494C443A2022302E362E3138302D3163
:100A3000302D676439343533612D646972747922DD
:100A4000202831363A32393A3336204E6F7620320A
:100A5000352032303138290A005649443A2030785E
:100A6000464641442850727A656D6F2D63292050A7
:100A700049443A20307845363043284572676F4301
:100A80006F6D7072657373656429205645523A2004
:100A90003078303030310A00444553433A20514DCC
:100AA0004B206B6579626F617264206669726D7745
:100AB00061726520666F72204572676F436F6D705B
:100AC0007265737365640A000A092D205665727396
:100AD000696F6E202D0A000A092D20436F6E736F17
:100AE0006C65202D0A4553432F713A09717569745D
:100AF0000A6D3A096D6F7573656B65790A000A09AD
:100B00002D204D61676963202D0A443A09446562CE
:100B10007567204D65737361676520546F67676CF7
:100B2000650A583A094D61747269782044656275A6
:100B300067204D6F646520546F67676C65202D20BA
:100B400053686F77206B6579707265737365732076
:100B5000696E206D617472697820677269640A4BEE
:100B60003A094B6579626F6172642044656275670A
:100B700020546F67676C65202D2053686F77206B5A
:100B800065797072657373207265706F72740A4D47
:100B90003A094465627567204D6F75736520546F1F
:100BA00067676C650A563A0956657273696F6E0A13
:100BB000533A095374617475730A433A0941637473
:100BC000697661746520436F6E736F6C65204D6F3D
:100BD00064650A46312D4631303A095377697463AA
:100BE0006820746F204C6179657220302D3920287F
:100BF000463130203D204C30290A302D393A0953F6
:100C0000776974636820746F204C61796572203055
:100C10002D390A4553433A09537769746368207440
:100C20006F204C6179657220302028616C74657288
:100C30006E617465206B65792031290A47524156EF
:100C4000453A0953776974636820746F204C617961
:100C5000657220302028616C7465726E6174652045
:100C60006B65792032290A50415553453A094A7536
:100C70006D7020746F20426F6F746C6F6164657269
:100C800020285265736574290A453A095072696EC5
:100C90007420454550524F4D2053657474696E67FA
:100CA000730A4E3A094E4B524F20546F67676C657A
:100CB0000A000A002575002E6E6B726F3A20000A3A
:100CC000002575002E737761705F6261636B736CD2
:100CD0006173685F6261636B73706163653A200082
:100CE0000A002575002E737761705F677261766503
:100CF0005F6573633A20000A002575002E6E6F5FF2
:100D00006775693A20000A002575002E73776170B7
:100D10005F72616C745F726775693A20000A002522
:100D200075002E737761705F6C616C745F6C6775B2
:100D3000693A20000A002575002E636170736C6F9C
:100D4000636B5F746F5F636F6E74726F6C3A2000D9
:100D50000A002575002E737761705F636F6E747281
:100D60006F6C5F636170736C6F636B3A20000A0095
:100D700025303258006B65796D61705F636F6E6608
:100D800069672E7261773A20000A002575002E6D82
:100D90006F7573653A20000A002575002E6B657922
:100DA000626F6172643A20000A002575002E6D6141
:100DB000747269783A20000A002575002E656E610C
:100DC000626C653A20000A00253032580064656282
:100DD00075675F636F6E6669672E7261773A200090
:100DE0000A0025750064656661756C745F6C6179D5
:100DF00065723A20003F004E4B524F3A206F6666B4
:100E00000A004E4B524F3A206F6E0A000A6D6F7502
:100E100073653A206F66660A000A6D6F7573653AEE
:100E2000206F6E0A000A6B6579626F6172643A2006
:100E30006F66660A000A6B6579626F6172643A20B8
:100E40006F6E0A000A6D61747269783A206F666687
:100E50000A000A6D61747269783A206F6E0A000A9E
:100E600064656275673A206F66660A000A646562A7
:100E700075673A206F6E0A000A0A4A756D70696ECE
:100E80006720746F20626F6F746C6F616465722E7F
:100E90002E2E2000433E20006565636F6E666967F5
:100EA0003A0A005B735D004B6579626F6172642082
:100EB00073746172742E0A005B575D005B535D00B2
:100EC0005B525D005B445D005B435D0004033000EA
:100ED00000001E034500720067006F0043006F00B2
:100EE0006D0070007200650073007300650064009F
:100EF00000001203500072007A0065006D006F0060
:100F00002D00630000000403090409025B000301D3
:100F100000A0FA09040000010301010009211101E8
:100F200000012240000705810308000A09040100AE
:100F3000010300000009211101000122C000070582
:100F4000820320000A0904020002030000000921B4
:100F5000110100012222000705830320000107057B
:100F600003032000011201100100000008ADFF0C76
:100F7000E60100010203010631FF0974A1010975B0
:100F8000150026FF009520750881020976150026B8
:100F9000FF00952075089102C005010902A1018595
:100FA000020901A10005091901290515002501956E
:100FB000057501810295017503810105010930095B
:100FC000311581257F95027508810609381581251F
:100FD0007F950175088106050C0A38021581257F69
:100FE000950175088106C0C005010980A10185032E
:100FF0001601002603001A81002A8300751095014E
:101000008100C0050C0901A1018504160100269C80
:10101000021A01002A9C02751095018100C0050189
:101020000906A1018505050719E029E71500250135
:1010300095087501810205081901290595057501B5
:1010400091029501750391010507190029EF15001B
:10105000250195F075018102C005010906A1010570
:101060000719E029E715002501950875018102950A
:10107000017508810105081901290595057501917A
:10108000029501750391010507190029FF15002636
:10109000FF00950675088100C00011241FBECFEF28
:1010A000DAE0DEBFCDBF04B603FE27C08091960212
:1010B00090919702A0919802B09199028730904B3D
:1010C000A740B04BD1F41092960210929702109262
:1010D00098021092990214BE84B7877F84BF0FB61E
:1010E000F894A895809160008861809360001092C8
:1010F00060000FBEE0E0F8E3099511E0A0E0B1E088
:10110000E8E0F7E602C005900D92AC32B107D9F7DE
:1011100022E0ACE2B1E001C01D92A639B207E1F7CE
:101120000E94962D0C9482330C940000FF93EF9351
:10113000E0912C01F0912D01309709F00995EF9184
:10114000FF910895FC018591803011F0EFDFFBCF16
:101150000895FF27E0E230E247FF0CC0419597FF7A
:1011600009C0EDE26095709580959095611D711DA7
:10117000811D911D27FF02C0219530E350E2AA276F
:10118000660F771F881F991FAA1FA41710F0A41BB2
:1011900063955A95A9F7AA3008F0A95FA05DAF93AF
:1011A000F395611571058105910541F7ED3211F453
:1011B000EF93F395F21718F43F93F395FBCF8F91CC
:1011C000B5DFFA95E1F70895E991F99185918030BD
:1011D00021F0853219F0AADFF9CF089520E0E894D4
:1011E00055915532C1F3503311F4689455915A33E7
:1011F00048F4505390F3220F022E220F220F200D9D
:10120000250FF4CF0EF4219589919991533619F356
:10121000533729F1533559F1BC0188279927E894B0
:101220005C3621F48991999168945591543639F43A
:1012300046EF7EF077FF0DC08FEF9FEF0AC0553766
:101240004AE039F0583540E121F0523642E009F0E9
:101250000895FF93EF937DDFEF91FF91B7CFFF9359
:10126000EF93FC0181918030B9F360DFFBCFFF93F6
:10127000EF9368DFF1CFDF93CF93CDB7DEB725963D
:10128000A3DFCF91DF9108951092B9008AE0809397
:10129000B800089594EA9093BC009091BC0097FF29
:1012A000FCCF9091B900987F983021F0903111F0E7
:1012B00081E008958093BB0084E88093BC00809116
:1012C000BC0087FFFCCF8091B900887F883111F086
:1012D000803471F780E008950C944A0984E9809382
:1012E000BC008091BC0084FDFCCF08958093BB00BE
:1012F00084E88093BC008091BC0087FFFCCF909174
:10130000B900987F81E0983209F480E0089584E87C
:101310008093BC008091BC0087FFFCCF8091BB0014
:10132000089580B38F7080BB81B38F7081BB84B10F
:10133000897F84B985B1897F85B90C94680B6E98D3
:10134000769A8AB183768AB98BB18C698BB93E98CB
:10135000469A24982C9A0C94D90B0C94060D80E88C
:1013600085BF85BF0E9491090E949F09E2E8F1E0D4
:101370008EE291E01192119220E030E0DC01A20FA8
:10138000B31F1C922F5F3F4F2E303105B9F70E96D9
:1013900021E08238920771F70C94890D0E9491091F
:1013A0000E949F09E2E8F1E011821082138212820A
:1013B0001582148217821682118610861386128671
:1013C00008959EE0899FB001112420E030E040E0C4
:1013D00050E0A1E0B0E0F901E60FF71FE25DFE4F3B
:1013E0009081992319F09150908309C0CD01022E6C
:1013F00002C0880F991F0A94E2F7482B592B2F5FE0
:101400003F4F2E30310539F7CA010895CF932EE0B2
:10141000629FB001112420E030E0A1E0B0E0C1E023
:10142000AD01022E02C0440F551F0A94E2F7482373
:101430005923452B31F0F901E60FF71FE25DFE4F0E
:10144000C0832F5F3F4F2E30310551F7CF91089564
:101450004F925F926F927F928F929F92AF92BF92C4
:10146000CF92DF92EF92FF920F931F93CF93DF9370
:101470000E94830B42E8842E41E0942E10E001E0AC
:10148000133099F028F4113051F0123059F004C0A3
:10149000143071F0153079F0849A8C980EC0859ACA
:1014A0008D980BC0869A8E9808C0879A8F9805C031
:1014B000219A299802C0229A2A98812F0E946C0BA7
:1014C00080EA8A95F1F7812F0E94E109EC010E94E0
:1014D0000A0C6C014B9904C030E4E32EF12C02C0DD
:1014E000E12CF12C4A9903C060E270E002C060E098
:1014F00070E04C9903C0A0E1B0E002C0A0E0B0E011
:10150000369904C028E0422E512C02C0412C512CA7
:1015100029B1022E000C330B209530952227330F72
:10152000221F3327220F331F220F331F669903C058
:1015300042E050E002C040E050E083B1F401A080FE
:10154000B18082958F70802780FB662460F8712CB3
:10155000C628D728EC28FD28E62AF72AAE29BF2975
:10156000F201EA2BFB2B2E2B3F2B422B532B4C2330
:101570005D23C095D095CA21DB21C42BD52B612FCB
:10158000CE018A259B250E94060AF401C193D193BE
:101590004F010E9491091F5F163009F071CF0E9420
:1015A000910D81E0DF91CF911F910F91FF90EF900E
:1015B000DF90CF90BF90AF909F908F907F906F9073
:1015C0005F904F900895E82FF0E0EE0FFF1FEE5769
:1015D000FE4F808191810895CF92DF92EF92FF922A
:1015E0000F931F93CF93DF938AE591E00E94A208A7
:1015F00082E8E82E81E0F82EC0E0D0E095E5C92E23
:1016000091E0D92E0CE411E0DF93CF93DF92CF92DB
:101610000E943B0982E591E00E94A208F7018191B6
:1016200091917F010E94711F9F938F931F930F933E
:101630000E943B098AE491E00E94A20821968DB79E
:101640009EB708960FB6F8949EBF0FBE8DBFC630EA
:10165000D105D1F6DF91CF911F910F91FF90EF90BF
:10166000DF90CF900895853008F08F5F20918E0134
:1016700030E0A90102C0559547958A95E2F7CA0165
:10168000817008950F931F93CF93DF931F92CDB76F
:10169000DEB790918F019923A1F0062F182F80E4D7
:1016A0000E944A09811108C0812F0E947609811188
:1016B00003C0802F0E94760989830E946E09898168
:1016C000982F892F0F90DF91CF911F910F9108953F
:1016D0006FEF81E00C94420B8F5F61E070E001C01E
:1016E000660F8A95EAF7609581E00C94420B6FEFE4
:1016F00082E00E94420B6FEF8CE00E94420B6FEF82
:1017000081E00C94420B80914B0280FF0EC08091CF
:101710008F011F928F9389E891E09F938F930E948E
:101720003B090F900F900F900F9080E40E944A09A0
:10173000811118C00E946E0980918F01811126C00D
:1017400080914B0280FF08C08FE791E09F938F93B9
:101750000E943B090F900F9081E080938F010E94BF
:10176000770B12C080918F01813081F480914B0200
:1017700080FF08C085E791E09F938F930E943B090B
:101780000F900F9010928F010E94C71880914B020A
:1017900080FF0EC080918F011F928F9381E791E0AF
:1017A0009F938F930E943B090F900F900F900F9083
:1017B00008950E9444090C94830B0F931F93CF93B9
:1017C000DF93C0918F01CC23D1F08B01D82F80E41F
:1017D0000E944A09C82F811110C08D2F0E947609DE
:1017E000C82F81110AC081E40E946C09C82F8111A1
:1017F00004C00E948709F80180830E946E098C2F23
:10180000DF91CF911F910F9108956EE871E082E111
:101810000C94DD0B8F929F92AF92BF92FF920F9329
:101820001F93CF93DF930E94050CCDE0D0E000E042
:1018300010E08DE0F82E812C912C540183948F2D93
:101840008C1B0E94330B882361F0D501C4010C2E40
:1018500004C0880F991FAA1FBB1F0A94D2F7082B38
:10186000192B219760F7C801DF91CF911F910F913C
:10187000FF90BF90AF909F908F90089584B188663D
:1018800084B985B1877985B9209A289A559A5D9A45
:10189000089525982D9826982E9823982B9820986F
:1018A000289A259A2D9A2FEF80E792E021508040C8
:1018B0009040E1F700C00000269A2E9A2FEF80E7B3
:1018C00092E0215080409040E1F700C00000239A50
:1018D0002B9A2FEF80E792E0215080409040E1F773
:1018E00000C0000025982D982FEF80E792E021504E
:1018F00080409040E1F700C0000026982E982FEF1E
:1019000080E792E0215080409040E1F700C0000065
:1019100023982B9825982D9826982E9823982B98C5
:101920002098289A08950E943E0C0E94490C0C941D
:10193000050DFC01623009F452C030F4662359F001
:10194000613009F446C058C0643059F1D8F06A30AB
:1019500009F44BC051C08281882339F00E943A219A
:10196000909391018093900147C080919001909154
:1019700091010E9452218B3F910508F040C08CE2FA
:1019800092E0089582818111E9CF80919001909138
:1019900091010E9452218B3F9105A0F58AE192E0CE
:1019A00008958281882349F00E943A219093910101
:1019B0008093900185E192E008958091900190914B
:1019C00091010E9452218B3F9105B0F08BE092E093
:1019D00011C08281882381F080E092E00BC0828177
:1019E000882351F088ED91E005C08281882321F0A1
:1019F00082EA91E00E94860D80E090E0089585E300
:101A000092E008958FE192E00895089560911E029A
:101A100070911F0280912002909121020E940B1F61
:101A20002098289A25982D9826982E9823982B98B8
:101A3000823039F0833041F0813041F4259A2D9A7B
:101A40000895269A2E9A0895239A2B9A089581E054
:101A5000089581E008950C94290DCF93282F30E04C
:101A6000F901E55BFB4FC491F901E553FB4F24916C
:101A7000222359F081EE0E9493148C2F0E9493141C
:101A80008C2F0E94AC1581EE04C08C2F0E94931401
:101A90008C2FCF910C94AC150F931F93CF93DF93A2
:101AA000EC01062FFE018491882359F19E012F5FDE
:101AB0003F4F813041F4E901F9011491812F0E94D7
:101AC0009314812F0DC0823031F4E901F901849122
:101AD0000E9493140AC0833031F4E901F901849122
:101AE0000E94AC1502C00E942D0D2196802F8823E4
:101AF000C9F2EFE9FFE03197F1F700C00000815033
:101B0000F6CFDF91CF911F910F91089560E00C9473
:101B10004C0D0E948B1F811102C00E9403200C9467
:101B2000930C0C94AD09282F2F7041F0822F90E078
:101B30002A3010F44D9608950697089587E290E0B4
:101B4000089508950C94A10D0C94A20D08950E947F
:101B5000C7180E94A60D2FEF84E39CE0215080401F
:101B60009040E1F700C000000C94A221FF920F9377
:101B70001F93CF93DF938C01FC01C081D1818091B1
:101B8000AE01811113C08281882349F0CE010E94E9
:101B9000F91DF82E682FCE010E949E1D04C0CE01B3
:101BA0000E94CD1DF82EBE018F2D04C0CE010E94D3
:101BB000F91DBE010E94530FEC01B8010E942B0DCC
:101BC000882309F468C1B801CE010E94B0118823AE
:101BD00009F461C1C63DFCE5DF0761F5F8018281CA
:101BE000882351F0109297010E943A21909394011A
:101BF0008093930182E03BC00E94CA1E85FF05C00E
:101C000081E08093970180939801809197018111E1
:101C10000FC080919301909194010E945221883CC1
:101C2000910530F486E20E94931486E20E94AC157E
:101C300082E02FC0C73D8CE5D80770F1CB3D8CE525
:101C4000D80709F4DAC008F0DFC0C73DFCE5DF07BC
:101C500009F0F8C0F8018281882361F010929801A0
:101C60000E943A21909396018093950180E20E9410
:101C7000141611C10E94CA1E81FF05C081E0809325
:101C800097018093980180919801882309F4C9C035
:101C900080E20E941B16FFC0C531ECE5DE0708F0AC
:101CA00082C0C230FCE5DF0708F452C0F80182812F
:101CB000882309F459C00E948B1F811102C00E9421
:101CC00003200E94A81F90E09093880280938702CF
:101CD000FE01E350FC45E231F10530F4EA5AFF4FD2
:101CE000809187020C94263380918702816027C0FF
:101CF000826025C0846023C0806121C080621FC0D3
:101D000080641DC080681BC08460886018C08E7F9E
:101D100016C08D7F14C08B7F12C08F7E10C08F7D48
:101D20000EC08F7B0CC08F770AC08B7F877F07C068
:101D300087FB222720F991E0922790FB87F9809377
:101D40008702809187020E94AC1F0E94C718A3C01F
:101D5000C1158CE5D80781F0C130DC45A9F081E0E0
:101D60008093970180939801C801DF91CF911F91D3
:101D70000F91FF900C94270DF8018281882309F4BC
:101D80008AC00E94A70D87C0F8018281882309F4C8
:101D900082C080914B02816080934B028AE394E081
:101DA0000E94A20878C0C631DC45C9F60E94CA1E4E
:101DB000282FF80182814091000150910101882370
:101DC00079F02A7A91E009F490E0909392019111D0
:101DD00002C069E201C065E3CA010E948C200AC00A
:101DE00080919201811102C069E201C065E3CA01DC
:101DF0000E9497200E94971E4EC0F801828188237E
:101E000009F449C080E00AC0CC3DECE5DE07D1F51D
:101E1000F8018281882309F43EC082E00E943E2EB0
:101E20003AC080919501909196010E945221883C80
:101E3000910508F02DCF87E20E94931487E20E945B
:101E4000AC1526CFC83DDC4509F089CFF801828169
:101E5000811104CF8091980181111ACF8091950151
:101E6000909196010E945221883C910508F010CF74
:101E700080E20E941B1688E20E94931488E20E946E
:101E8000AC1509C0CD3DDC4509F069CFF801828170
:101E900081110E94032080E0DF91CF911F910F916B
:101EA000FF90089508959EE0799FF001112494E534
:101EB000899FE00DF11D1124E60FF11DEE0FFF1FAC
:101EC000EE5BFD4F859194910895880F991FFC0159
:101ED000E25CFD4F859194910895CF93DF930E942A
:101EE000530F0E941011EC01811520E59207F0F5C7
:101EF000811530E4930708F018C1883E910500F57C
:101F0000803E910508F088C1883A910570F4853AC1
:101F1000910508F09AC08130910509F47DC108F45B
:101F200034C1049708F078C130C18D3B910508F4A5
:101F300097C0803C910508F428C1805C9109E7C0F6
:101F40008115904258F4C11581E0D80708F064C1AA
:101F5000C03FD10508F419C1D0655EC1C11590E339
:101F6000D90708F0D8C0CE019F70D1C0811525E5F2
:101F7000920708F043C0811534E5930708F0ECC0E0
:101F8000811542E5940708F5C11581E5D80708F0E9
:101F9000CFC02C2F237081E090E002C0880F991FE2
:101FA0002A95E2F79C689E0174E0369527957A950C
:101FB000E1F72370922BCF70C695C69530E2C39F90
:101FC000E0011124C82BD92B27C1869586959E0147
:101FD00023703327C115D34508F0AFC040E2849F7A
:101FE000C0011124C1E0D0E002C0CC0FDD1F2A9552
:101FF000E2F78C2B9D2BEC01DC680EC1811529E5E5
:10200000920778F4811538E5930708F0AAC0811586
:10201000964508F0BAC0CF71DD27DC2FCC27D062FF
:10202000FBC0C1158AE5D80708F4A0C0CE019056C0
:102030008115904208F0A9C08D2F8F710E948D11DB
:10204000DD27D0628F71D82BE7C0853A910509F45E
:102050009FC0863A910509F09EC0C2E8D0E4DCC07A
:10206000883A910509F49AC0893A910509F499C012
:102070008A3A910509F498C08B3A910509F497C002
:102080008C3A910509F496C08B3B910509F495C0F3
:102090008C3B910509F494C08D3A910509F493C0E5
:1020A000803B910509F492C08E3A910509F491C0E4
:1020B0008F3A910509F490C0813B910509F48FC0D6
:1020C000823B910509F48EC0833B910509F48DC0D4
:1020D000843B910509F48CC0853B910509F48BC0C4
:1020E000863B910509F48AC0873B910509F489C0B4
:1020F000883B910509F488C0893B910509F487C0A4
:102100008A3B910509F486C0C0E0D4E485C00E94F2
:10211000650FEC0181C0CE019927D3FF03C0EC010C
:10212000D86C7AC0EC01D06C77C0DF70D06A74C014
:10213000DC2FCC27C16FD06A6FC040E2849FC00102
:102140001124C1E0D0E002C0CC0FDD1F2A95E2F7D8
:10215000C82BD92BDA6860C0D82FCC27C46FD06ABF
:102160005BC0D82FCC27C06FD06A56C08C2F8F7021
:10217000806E90E0906A24E0D695C7952A95E1F7A5
:10218000CF709C013C2BE90147C0C0E0D0E044C0C7
:10219000C1E8D0E441C0C3E8D0E43EC0C2EED4E41C
:1021A0003BC0C9EED4E438C0CAEED4E435C0C5EBB8
:1021B000D4E432C0C6EBD4E42FC0C3EBD4E42CC0CB
:1021C000C4EBD4E429C0C7EBD4E426C0CCECD4E4FF
:1021D00023C0CDECD4E420C0C3E8D5E41DC0CAE8D8
:1021E000D5E41AC0C2E9D5E417C0C4E9D5E414C0E7
:1021F000C1E2D6E411C0C3E2D6E40EC0C4E2D6E424
:102200000BC0C5E2D6E408C0C6E2D6E405C0C7E20A
:10221000D6E402C0CAE2D6E4CE01DF91CF910895A0
:102220008238910549F1B0F48133910509F458C021
:1022300048F48932910509F44EC08A32910509F4B7
:1022400054C008958533910509F440C08933910540
:1022500099F00895833E910529F138F4803E910567
:1022600091F0823E9105A1F00895863E9105F9F026
:10227000873E910531F108952091870220FD3AC0F3
:1022800021FD38C008958091870280FD35C032C09D
:102290008091870282FF32C08091870284FD30C026
:1022A00083EE39C08091870282FD28C0F5CF8091EE
:1022B000870283FF27C08091870284FD21C087EEBB
:1022C0002AC08091870283FD1DC0F5CF80918702CF
:1022D00085FD1AC01BC08091870285FD17C014C000
:1022E0008091870286FD14C015C08091870286FD0B
:1022F00011C00EC080EE0FC089E30DC082EE0BC08E
:1023000080E009C086EE07C089E205C085E303C00E
:102310008AE201C081E390E008959091870292FFE4
:102320000DC0282F2871283019F4877F846006C0DB
:10233000282F2471243011F48B7F886093FF0DC007
:10234000282F2871283119F4877E846106C0282F30
:102350002471243111F48B7E886194FD877E089569
:10236000CF93DF93813020E8920778F0FB01228140
:10237000222359F0EC010E94C9110E94D711CE010D
:102380009F770E949F120E94531281E0DF91CF91AC
:10239000089580919901811109C08CE090E00E941C
:1023A000403380939A0181E0809399010895E091F0
:1023B0000001F091010180818093800281FF03C0C0
:1023C00081EE0E94AC158091800285FF03C085EEEE
:1023D0000E94AC158091800280FF03C080EE0E94B5
:1023E000AC158091800284FF03C084EE0E94AC157E
:1023F0008091800282FF03C082EE0E94AC15809122
:10240000800286FF03C086EE0E94AC158091800298
:1024100083FF03C083EE0E94AC158091800287FF8A
:1024200003C087EE0E94AC1580919A01823001F1C1
:10243000A8F48823C9F0813079F580EE0E949314C6
:1024400081EE0E94931488E10E94931488E10E9417
:10245000AC1581EE0E94AC1580EE1CC0843081F07A
:102460008530D1F486EE01C082EE0E94931414C030
:1024700082EE0E94931487E50E94931487E50AC0B8
:1024800086EE0E94931486EE0E94AC1588E10E94AD
:10249000931488E10E94AC158FE39CE90197F1F752
:1024A00000C00000089580919A01813049F030F019
:1024B000823021F0853051F486EE06C082EE04C0F1
:1024C0008CE20E9493148CE20E94AC1580918002F1
:1024D00081FF03C081EE0E9493148091800285FFEA
:1024E00003C085EE0E9493148091800280FF03C098
:1024F00080EE0E9493148091800284FF03C084EEDA
:102500000E9493148091800282FF03C082EE0E9499
:1025100093148091800286FF03C086EE0E9493147C
:102520008091800283FF03C083EE0E949314809108
:10253000800287FF03C087EE0C9493140895EF92F6
:10254000FF921F93CF93DF937C01CCE0D0E0970103
:102550000C2E02C0369527950A94E2F7122F1F70B1
:10256000812F0E94930D0E949314812F0E94930D3E
:102570000E94AC152497CC3F8FEFD80741F7DF912D
:10258000CF911F91FF90EF9008959093A0018093B9
:102590009F010895E0919F01F091A001309721F0F3
:1025A0000190F081E02D099480E00895EF92FF9270
:1025B0001F93CF93DF93FC01A0919F01B091A001E5
:1025C000109709F442C080911101882341F0809155
:1025D000870287FF04C08081818385E08083EF01CB
:1025E0001296ED91FC911397CE01099580914B02C3
:1025F00082FF2BC080FF04C083E595E00E94A20803
:1026000018E08DE4E82E85E0F82E80914B0280FFE3
:102610000BC088811F928F93FF92EF920E943B091B
:102620000F900F900F900F90115021961111EDCF38
:1026300080914B0280FF09C08BE495E0DF91CF9140
:102640001F91FF90EF900C94A208DF91CF911F9102
:10265000FF90EF900895E0919F01F091A0013097D5
:1026600039F022E0DC012C930480F581E02D0994FF
:10267000089520919D0130919E018217930771F07A
:1026800090939E0180939D01E0919F01F091A001A4
:10269000309721F00680F781E02D0994089520916C
:1026A0009B0130919C018217930771F090939C01DC
:1026B00080939B01E0919F01F091A001309721F060
:1026C0000084F185E02D0994089585B7806885BF61
:1026D00085B7806885BF089508950E9465130C949E
:1026E0006C1381E008950E9431210E94AF090C947F
:1026F0001222CF93C82F80914B0282FF1EC080FF11
:1027000004C08CE695E00E94A20880914B0280FFF5
:102710000CC01F92CF9387E695E09F938F930E9402
:102720003B090F900F900F900F9080914B0280FF0C
:1027300004C085E695E00E94A2088C2FCF910C94EE
:10274000A40D4F925F927F928F929F92AF92BF9211
:10275000CF92DF92EF92FF920F931F93CF93DF936D
:10276000CDB7DEB72A970FB6F894DEBF0FBECDBF48
:102770000E94280A0E947113811111C08FEF898372
:102780008A831B820E943A218160782F9D838C83EB
:1027900049815A816B818D810E945F1457C092EAF2
:1027A000C92E91E0D92E00E010E0AA24A394B12C08
:1027B000702E802F0E94E30A4C01F6014190519047
:1027C0006F01482659264114510431F40F5F1F4F01
:1027D0000630110569F7D2CF80914B0281FD0E942E
:1027E000EC0A20E030E07501022E02C0EE0CFF1C66
:1027F0000A94E2F7C70184219521892B09F12E83E0
:102800007F828E209F2091E0892809F490E09887AC
:102810000E943A218160782F9A8789874E815F8153
:1028200068858A850E945F14000F111FF801EE551C
:10283000FE4F80819181E826F926F182E08206C070
:102840002F5F3F4F2E30310571F6C0CF0E943F25DC
:102850001091A1010E94CA121817D9F00E94CA1241
:102860008093A1012A960FB6F894DEBF0FBECDBFAC
:10287000DF91CF911F910F91FF90EF90DF90CF905C
:10288000BF90AF909F908F907F905F904F900C94EF
:1028900079132A960FB6F894DEBF0FBECDBFDF9135
:1028A000CF911F910F91FF90EF90DF90CF90BF904D
:1028B000AF909F908F907F905F904F900895CF93AF
:1028C000DF93CDB7DEB72B970FB6F894DEBF0FBE00
:1028D000CDBF4F83588769877A878B87DE01119632
:1028E00086E0FD0111928A95E9F785E0FE013796B1
:1028F00001900D928A95E1F749815A816B817C8123
:102900008D819E810E946E1B2B960FB6F894DEBFC0
:102910000FBECDBFDF91CF910895FC0180819181E1
:102920000E94381E0895CF93DF931F92CDB7DEB774
:10293000882309F40DC1682F8238C1F40E94CA129D
:1029400081FD06C169E380910001909101010E941F
:102950008C200E94971E2FEF81EE94E02150804042
:102960009040E1F700C0000069E319C0833811F519
:102970000E94CA1280FDECC063E580910001909135
:1029800001010E948C200E94971E2FEF81EE94E09F
:10299000215080409040E1F700C0000063E5809145
:1029A0000001909101010E9497200F90DF91CF913B
:1029B0000C94971E8438C1F40E94CA1282FDC8C0CC
:1029C00067E480910001909101010E948C200E9497
:1029D000971E2FEF81EE94E0215080409040E1F768
:1029E00000C0000067E4DBCF8CEF860F813A70F403
:1029F000862F69830E94C92969818111A9C08091AC
:102A00000001909101010E948C20CFCF80E2860FBF
:102A1000883048F4677081E001C0880F6A95EAF752
:102A20000E94CD1EC2CF8BE5860F833088F4653AB5
:102A300029F0663A31F083E890E005C081E890E043
:102A400002C082E890E00F90DF91CF910C9439138F
:102A500088E5860F853108F071C0683A61F1693AFE
:102A600069F16A3A71F16B3A79F16C3A81F16B3B39
:102A700089F16C3B91F16D3A99F1603BA1F16E3AAD
:102A8000A9F16F3AB1F1613BB9F1623BC1F1633B2E
:102A9000C9F1643BD1F1653BD9F1663BE1F1673B9C
:102AA000E9F1683BF1F1693BF9F16A3B09F43FC098
:102AB00080E090E03EC082EE90E03BC089EE90E086
:102AC00038C08AEE90E035C085EB90E032C086EBEE
:102AD00090E02FC083EB90E02CC084EB90E029C005
:102AE00087EB90E026C08CEC90E023C08DEC90E06A
:102AF00020C083E891E01DC08AE891E01AC082E915
:102B000091E017C084E991E014C081E292E011C025
:102B100083E292E00EC084E292E00BC085E292E094
:102B200008C086E292E005C087E292E002C08AE235
:102B300092E00F90DF91CF910C944F13603F40F0E3
:102B4000862F0E94C5230F90DF91CF910C94B22461
:102B50000F90DF91CF910895882309F464C08238E3
:102B600079F40E94CA1281FF5EC069E3809100017E
:102B7000909101010E948C200E94971E69E310C071
:102B80008338B1F40E94CA1280FF4DC063E5809182
:102B90000001909101010E948C200E94971E63E524
:102BA00080910001909101010E9497200C94971E42
:102BB000843879F40E94CA1282FF35C067E480919C
:102BC0000001909101010E948C200E94971E67E4F1
:102BD000E7CF9CEF980F913A10F4682FE1CF90E285
:102BE000980F983050F4877091E001C0990F8A9542
:102BF000EAF7892F0E94D31ED9CF9BE5980F933017
:102C000020F480E090E00C94391398E5980F95310A
:102C100020F480E090E00C944F13803F20F00E945D
:102C20002D240C94B2240895882321F00E94CD1EF7
:102C30000C94971E0895882321F00E94D31E0C94B3
:102C4000971E08958F929F92AF92BF92DF92EF925C
:102C5000FF920F931F93CF93DF937C01D62FC72F43
:102C6000FC01058102950F70128111110E94EA1E6C
:102C70000E94901E882379F0112369F080E28D0F65
:102C8000883048F082E00E94791E0E94901E91E0F8
:102C9000D82ED92601C0D12CAC2EA2948FE0A82228
:102CA000B12CF501E859FF4F0C9426338C2F807F0F
:102CB000CF70882311F0C295C07F112399F0CC23E7
:102CC00009F4C7C180E28D0F883010F0D11104C023
:102CD0008C2F0E94CD1E03C08C2F0E94DD1E0E94EF
:102CE000971EB7C18D2F0E94AC15CC2309F4D6C115
:102CF00080E28D0F883010F0D11104C08C2F0E941B
:102D0000D31E03C08C2F0E94E31E0E94971EC6C1D3
:102D10008C2F807FCF70803211F0C295C07FDD2371
:102D200019F0D130C9F021C0112371F0002341F016
:102D3000013031F40E94031F8C2B0E94FD1EAEC196
:102D40000E94031F8C2B3FC1002319F0013009F4AE
:102D5000A5C10E94001F11C0112321F0023008F00C
:102D60009DC107C001119AC108C0112321F00111B2
:102D700070C18C2F28C101117DC18C2F2AC18C2FCD
:102D800086958695837090E0009719F0019761F021
:102D900085C1112321F08D2F9C2F937002C080E0FC
:102DA00090E00E9439138AC1112321F08D2F9C2FAE
:102DB000937002C080E090E00E944F137FC1112306
:102DC000F9F0D53F51F0D63F71F0D43FA9F480918E
:102DD00081029091820281600BC08091810290916A
:102DE0008202826005C0809181029091820284609B
:102DF00090938202809381028D2F0E94C5231EC072
:102E0000D53F51F0D63F71F0D43FA9F480918102B3
:102E1000909182028E7F0BC08091810290918202FC
:102E20008D7F05C080918102909182028B7F90936B
:102E30008202809381028D2F0E942D240E94B22451
:102E40003DC18C2F837009F050C0111133C18D2FFB
:102E5000829586958770880F880F9D2F9F70892E89
:102E6000912CA12CB12C082E04C0880C991CAA1CF2
:102E7000BB1C0A94D2F7D4FF14C00FE010E020E08E
:102E800030E0B901A80104C0440F551F661F771F29
:102E90008A95D2F7CB01BA0160957095809590958F
:102EA00003C060E070E0CB01C695C695C370D0E06A
:102EB000C230D10561F0C330D10581F0682979298C
:102EC0008A299B29219771F00E94B31CF3C06829BD
:102ED00079298A299B290E94C51CECC00E94B31C39
:102EE000C501B4010E94A11CE5C0112319F08C2F6B
:102EF000817001C08695882309F4DCC08D2F8295EE
:102F000086958770880F880F9D2F9F70892E912C32
:102F1000A12CB12C082E04C0880C991CAA1CBB1C27
:102F20000A94D2F7D4FF14C00FE010E020E030E0A4
:102F3000B901A80104C0440F551F661F771F8A9569
:102F4000D2F7CB01BA01609570958095909503C03A
:102F500060E070E0CB01C695C695C3704C2F50E081
:102F60004230510569F04330510589F068297929CB
:102F70008A299B294130510571F00E94791D9AC020
:102F8000682979298A299B290E948B1D93C00E9458
:102F9000791DC501B4010E94671D8CC08D2F90E082
:102FA000FC01E05EF109E531F10508F04EC0E8589A
:102FB000FF4F0C942633DF708C2F8F71112331F06B
:102FC0000E94001D8D2F0E94141668C00E94211DB2
:102FD0008D2F0E941B1662C0112339F001115EC0B3
:102FE0008C2F8F710E94461D59C0023008F056C0C8
:102FF000F7CF112339F08C2F8F710E94001D4EC026
:103000001123C9F38C2F8F710E94211D47C01123FA
:1030100029F08C2F8F710E94EB1C40C00E94E61C8F
:103020003DC0112349F0CF718C2F0E94001D63E039
:103030008C2F0E94701E32C081E00E94791E0230E7
:1030400068F182E00E94791E29C0112331F000232B
:1030500091F28D2F0E94931421C0002399F2D9334D
:1030600049F45FEF67EE73E0515060407040E1F764
:1030700000C000008D2F0E94AC1510C04C2F4F7067
:103080006D2FC7010E94990C0E94121C17C04C2F73
:103090004F706D2FC7010E94520F10C088E0A81614
:1030A000B10441F05CF0EAE0AE1AB108F2E0AF160C
:1030B000B10420F40E94CA120E94A40DDD20E1F0A8
:1030C0000E946C1E80FD18C0F70112820E94661ECD
:1030D0000E94001DC7010E9488180E94661EDF9191
:1030E000CF911F910F91FF90EF90DF90BF90AF9025
:1030F0009F908F900C94211DDF91CF911F910F9184
:10310000FF90EF90DF90BF90AF909F908F900895C9
:103110000F931F93CF93DF93EC01888199812B81CB
:103120003C81232BB9F09F3F11F48F3F99F0CE01E2
:103130000E94B60D882371F0688179818A810E948E
:10314000431E8C010E949D1D0E949E1CB801CE0151
:103150000E942216DF91CF911F910F9108950E9436
:10316000EA1E0E94FA1E80910001909101010E94C6
:10317000A2200E94971E0E94DA250E94B22480E0BD
:1031800090E00E94391380E090E00C944F130E946D
:10319000DA1E0C94AF180E94381EE92FE295EF70EA
:1031A000F0E03297EE30F105B0F4E357FF4F0C94A6
:1031B0002633803F91F018F4803E68F40EC0843FBF
:1031C00051F40BC0803E48F0813F29F406C093FBC8
:1031D000882780F9089580E0089581E00895CF93CD
:1031E000DF9300D000D01F92CDB7DEB70F900F90C5
:1031F0000F900F900F90DF91CF910895CF93DF93B1
:1032000000D000D000D0CDB7DEB726960FB6F89428
:10321000DEBF0FBECDBFDF91CF9108951F93CF9337
:10322000DF93C091AF0116E08091B001C81799F00B
:10323000D0E01C9FF0011D9FF00D1124EF54FE4FB4
:103240004081518162817381848195810E94FE1841
:103250002196C770E9CFDF91CF911F9108954091DA
:10326000E1015091E2016091E3017091E4018091EC
:10327000E5019091E6010C94FE188091E60182959B
:103280008F7009F054C08091E301882309F44FC086
:103290008091AF01A091B0016091E1017091E201D4
:1032A0004091E4015091E501B6E08A1709F43FC06E
:1032B00090E041155105C1F17F3F11F46F3FA1F13D
:1032C000B89FF001B99FF00D1124EF54FE4F2181FA
:1032D00072132AC02081621327C02281211124C0C9
:1032E000238134812417350710F421503109241B20
:1032F000350B283C3105C0F42091E6012F70206188
:103300002093E60126E0289FF001299FF00D11246B
:10331000EA54FE4F80818F708061808381EE91E05E
:103320000E9488180C940E1901968770BECF0895DC
:10333000CF92DF92EF92FF920F931F93CF93DF9381
:10334000CDB7DEB762970FB6F894DEBF0FBECDBF24
:103350008C0185E0F801DE011D9601900D928A95A1
:10336000E1F7D8014C9111965C91119712966C91EE
:1033700012971396CD90DC9014973091E1017091E3
:10338000E2018091E4019091E501009709F46BC19D
:103390007F3F19F43F3F09F466C1E090E301EE205E
:1033A00009F4C0C02091E601C816D90628F0F6013C
:1033B000E81BF90BCF0104C0809590958C0D9D1DE5
:1033C000FF24F394883C910578F0F12C207F09F0DC
:1033D000C6C07C2DD98AC88A89890E94EF1881EEDF
:1033E00091E00E948818B1C0822F807F09F046C00A
:1033F000751314C0341312C0611110C02F702061F6
:103400002093E6010E942F1981EE91E00E94881816
:103410008091E601D80115968C932EC0CD2819F124
:103420005F3F11F44F3FF9F0F62E61111CC08091FF
:10343000AF012091B00136E0821709F45AC090E044
:10344000389FF001399FF00D1124EF54FE4F718128
:10345000571306C07081471303C07281711103C0F6
:1034600001968770E9CFF62E662309F427C1809173
:10347000E60181608093E601F12C20C1751308C03C
:10348000341306C0611104C08091E601D801C3C0A5
:103490004D875E878D859E856A8B0E94CB186A89D1
:1034A0008823E1F16623D1F12091E601822F8295F4
:1034B0008F7090E0029774F08091E1019091E201A9
:1034C00098878F831986DB86CA862C87CE0107965C
:1034D0000E94881886E0F801A1EEB1E001900D92FB
:1034E0008A95E1F70E943D190E942F19FF24F39459
:1034F000E5C04D875E878D859E850E94381E292FE9
:1035000022952F7030E0223031050CF0CBC09F7037
:1035100009F0C5C0805E883008F4D0C0C8010E94A0
:103520008818E4CFC816D90608F453C0F601E81B82
:10353000F90BCF01883C910508F450C0F12C7C2D8B
:10354000D98AC88A89890E94EF18E1EEF1E086E005
:10355000DF011D928A95E9F70E942F19AFC07513FC
:1035600014C0341312C0611110C08091E601F8013B
:103570008583C8010E94881886E0E1EEF1E0DF0152
:103580001D928A95E9F7FE2C99C04D875E878D853F
:103590009E856A8B0E94CB186A89882309F4BECF66
:1035A000662309F4BBCF2091E601822F82958F70AC
:1035B00090E002970CF48ECF8091E1019091E201AE
:1035C0009A8389831B82DD82CC822E83CE01019671
:1035D0007FCF809590958C0D9D1DACCFF62E6623E8
:1035E00009F49CCF75132EC034132CC02091E60132
:1035F00020FD1FC0822F82958F70D9F0D8011596BB
:103600002C9315978F3049F08F5F982F9295907F6C
:10361000822F8F70892B15968C93C8010E94881871
:1036200086E0F801A1EEB1E001900D928A95E1F7F4
:1036300093CF86E0F801A1EEB1E001900D928A955A
:10364000E1F73CC04D875E878D859E850E94CB1833
:10365000811140CF8091E60181608093E601C8012D
:103660000E9488182BC0662309F458CF4D875E87C7
:103670008D859E850E94CB18F82E882309F44ECFA5
:1036800086E0F801A1EEB1E001900D928A95E1F794
:1036900081EE91E00E948D140E943D195DCF811151
:1036A00039CF0CC0243031050CF038CF9F7009F4AD
:1036B00031CFF8019581907F09F02CCF8F2D629644
:1036C0000FB6F894DEBF0FBECDBFDF91CF911F9133
:1036D0000F91FF90EF90DF90CF9008951F93CF93BD
:1036E000DF93CDB7DEB72C970FB6F894DEBF0FBED1
:1036F000CDBF4F83588769877A878B879C87CE0198
:1037000007960E949819882369F08F8198852A85E9
:103710003B85232BF1F19F3F09F063C08F3F09F0F8
:1037200060C037C086E0FE013796DE011196019039
:103730000D928A95E1F76F817885EA85FB85309750
:1037400041F17F3F11F46F3F21F12091B00130E052
:10375000C9010196877099274091AF0150E0841705
:10376000950709F447C069837A83FD83EC8396E06B
:10377000929FD001939FB00D1124AF54BE4FFE0114
:10378000319601900D929A95E1F78093B0010E94D5
:103790000E1916E08091AF019091B0018917C1F127
:1037A000189FC00111248F549E4F0E94981988239E
:1037B00079F1E091AF011E9FF0011124EF54FE4F0B
:1037C0004081518162817381848195810E94FE18BC
:1037D0008091AF0190E00196877099278093AF01A7
:1037E000D9CF4F81588569857A858B859C850E94C4
:1037F000FE18CFCF0E94C7181092B0011092AF01EF
:10380000E1EEF1E086E0DF011D928A95E9F7C1CF94
:103810002C960FB6F894DEBF0FBECDBFDF91CF91CF
:103820001F910895EF92FF920F931F93CF93DF9311
:103830008C01892B09F46CC0F12CEE24E394E8018F
:103840002196F8018491843740F4843008F051C007
:10385000813081F0823019F15BC0853709F444C0B2
:10386000A8F19CE7980F903708F052C08F770E941C
:10387000AC1541C00E5F1F4FFE01C49180E28C0F5A
:10388000883048F4C7708E2D01C0880FCA95EAF7BA
:103890000E94ED1E14C08C2F0E9493142DC00E5F49
:1038A0001F4FFE01C49180E28C0F883058F4C7701E
:1038B0008E2D01C0880FCA95EAF70E94F31E0E9460
:1038C000971E1AC08C2F0E94AC1516C00E5F1F4F9A
:1038D000FE01C491CC2381F08FE99FE00197F1F7BD
:1038E00000C00000C150F6CF0E5F1F4FFE01F490E4
:1038F00003C00E9493148E018F2D882309F49FCF5B
:10390000EFE9FFE03197F1F700C000008150F5CFFB
:10391000DF91CF911F910F91FF90EF90089508953F
:103920000C948F1C0E94901C6093220270932302BF
:1039300080932402909325020C94AF1808950C9460
:10394000921C0F931F930091220210912302209149
:10395000240230912502602B712B822B932B1F9117
:103960000F910C94921C0F931F93009122021091BF
:1039700023022091240230912502602371238223A7
:1039800093231F910F910C94921C0F931F930091FE
:1039900022021091230220912402309125026027F7
:1039A0007127822793271F910F910C94921C0895E1
:1039B0000C94D71C0E94D81C60931E0270931F02A7
:1039C00080932002909321020C94AF1860E070E085
:1039D000CB010C94DA1C0F931F9341E050E060E0A0
:1039E00070E08A019B0104C0000F111F221F331FCA
:1039F0008A95D2F7C901B8011F910F910C94DA1C76
:103A00000F931F9341E050E060E070E004C0440F6A
:103A1000551F661F771F8A95D2F780911E029091DD
:103A20001F02A0912002B09121028A019B01082B64
:103A3000192B2A2B3B2BC901B8011F910F910C9414
:103A4000DA1C0F931F9341E050E060E070E004C087
:103A5000440F551F661F771F8A95D2F740955095E2
:103A60006095709580911E0290911F02A091200296
:103A7000B09121028A019B01082319232A233B23A9
:103A8000C901B8011F910F910C94DA1C0F931F9379
:103A900041E050E060E070E004C0440F551F661F35
:103AA000771F8A95D2F780911E0290911F02A091F4
:103AB0002002B09121028A019B01082719272A2799
:103AC0003B27C901B8011F910F910C94DA1C0F9389
:103AD0001F9300911E0210911F022091200230912D
:103AE0002102602B712B822B932B1F910F910C9431
:103AF000DA1C0F931F9300911E0210911F02209158
:103B000020023091210260237123822393231F918D
:103B10000F910C94DA1C0F931F9300911E021091C9
:103B20001F022091200230912102602771278227F5
:103B300093271F910F910C94DA1C08952EE0929F09
:103B4000800D1124A82FA695A695A695877051E003
:103B500001C0550F8A95EAF785E0A89FD00111248E
:103B600020E030E070E0F901EA0FFB1FE951FE4F61
:103B70004081CB01022E02C0969587950A94E2F708
:103B800081709927819584278523842780832F5FDF
:103B90003F4F2530310539F708952EE0929F800D73
:103BA0001124682F669566956695982F977085E025
:103BB000689FB001112440E050E080E0FA01E60F78
:103BC000F71FE951FE4F208130E0092E02C03695E3
:103BD00027950A94E2F721703327042E01C0220FA3
:103BE0000A94EAF7822B4F5F5F4F4530510531F75A
:103BF0000895CF92DF92EF92FF920F931F93CF938E
:103C0000DF938C01C0902202D0902302E090240226
:103C1000F090250280911E0290911F02A091200237
:103C2000B0912102C82AD92AEA2AFB2ACFE1D0E0A2
:103C3000D701C6010C2E04C0B695A7959795879518
:103C40000A94D2F780FF06C0B8018C2F0E946D0F36
:103C5000019721F4219760F780E001C08C2FDF915C
:103C6000CF911F910F91FF90EF90DF90CF9008952B
:103C7000CF93DF93EC010E94F91DBE010E946D0FEE
:103C8000DF91CF9108951F93CF93DF93EB01909134
:103C9000AE01992321F0CB010E94381E13C0882366
:103CA00049F0CB010E94F91D182F682FCE010E9408
:103CB0009E1D04C0CB010E94CD1D182FBE01812F77
:103CC0000E946D0FDF91CF911F9108958091260280
:103CD000859585958595089580912602877008952C
:103CE00098E0899F90011124262B209326020C94A2
:103CF000001D209126028095822380932602982F12
:103D0000977069F430E0482F082E000C550B2417EB
:103D1000350729F08595859585950C94211D089585
:103D200090912602977081E009F480E00895E09177
:103D30000001F091010180914A028083E09100012D
:103D4000F0910101908180914902892B8083E0915B
:103D50000001F0910101908180914802892B8083BC
:103D600080912702882381F0E0910001F091010108
:103D70009081892B808380910001909101010E94A4
:103D8000052081111092270280910001909101017C
:103D90000C94D61280914A02089590914A02892B80
:103DA00080934A020895809590914A0289238093D6
:103DB0004A02089510924A02089590914902892B6F
:103DC00080934902089580959091490289238093B8
:103DD0004902089510924902089590914802892B52
:103DE000809348020895809590914802892380939A
:103DF000480208951092480208958093270208957A
:103E000010922702089580912702089590932D0122
:103E100080932C010895CF92DF92EF92FF926C0174
:103E2000EE24FF24C114D104E104F10421F0C70100
:103E3000B60120E101C020E0C72ED82EE92EFF24D4
:103E4000C114D104E104F10419F0285FC701B601DF
:103E50006B017C0154E0F694E794D794C7945A958B
:103E6000D1F7C114D104E104F10419F02C5FC701AA
:103E7000B6016B017C0142E0F694E794D794C794B5
:103E80004A95D1F7C114D104E104F10419F02E5F71
:103E9000C701B601DC01CB01B695A795979587952B
:103EA000892B8A2B8B2B09F02F5F822FFF90EF90AD
:103EB000DF90CF9008958295982F9C7C392F36956E
:103EC0003695282F237344E0249FC0011124932F9B
:103ED000982B292F2A7A2695892F8575880F822B72
:103EE00008951F93CF93DF931F92CDB7DEB79983C9
:103EF0000E945B1F182F9981892F0E945B1F212F21
:103F000030E0322F2227A901482BCA010F90DF9100
:103F1000CF911F91089580E090E00E94483321E006
:103F20008D3E9E4F09F020E0822F089582E090E0C0
:103F30000C944033682F82E090E00C944E3383E081
:103F400090E00C944033682F83E090E00C944E3363
:103F500084E090E00C944033682F84E090E00C946F
:103F60004E33AB01BC018FE090E00C946033AB01A9
:103F7000BC0183E190E00C94603360E070E0CB0121
:103F80000C94B71F60E070E0CB010E94B11F0C944D
:103F9000BD1F6DEE7EEF80E090E00E946C3360E02C
:103FA00082E090E00E944E3360E083E090E00E9467
:103FB0004E33109222021092230210922402109289
:103FC000250260E084E090E00E944E3360E085E0EE
:103FD00090E00E944E3360E086E090E00E944E3315
:103FE0006FEF87E090E00E944E3340E050E0BA016E
:103FF00088E090E00E94603360E08DE090E00E94F5
:104000004E330C94C21F0C94C91FFC013296809150
:104010001101882331F08091870287FF02C09EE161
:1040200001C096E080E0915028F021912223D9F33D
:104030008F5FF9CF08959C01FC0132969FEF80E0DD
:104040004191461789F09F3F19F4411101C0982F03
:104050008F5F8630A9F79F3F39F0F901E90FF11D15
:1040600097FDFA95628308950895FC0132960896AB
:104070002081261301C010823196E817F907C1F795
:104080000895262F2695269526952E3170F4FC014D
:10409000E20FF11D677021E030E001C0220F6A9548
:1040A000EAF78281282B2283089580914B0280FFBA
:1040B0000CC01F926F938DE995E09F938F930E94A0
:1040C0003B090F900F900F900F900895262F269583
:1040D000269526952E3178F4FC01E20FF11D6770CC
:1040E00021E030E001C0220F6A95EAF72095828135
:1040F00028232283089580914B0280FF0CC01F92D9
:104100006F938FE795E09F938F930E943B090F90E9
:104110000F900F900F90089520911101222329F004
:104120002091870227FD0C9441200C941B202091A4
:104130001101222329F02091870227FD0C9466208B
:104140000C94352020911101FC013296222331F08C
:104150008091870287FF02C08EE101C086E0DF0107
:104160001D928A95E9F7089508950C94B4200E9451
:10417000B52080918D02843049F110924C0220E4E8
:1041800088E190E00FB6F894A895809360000FBE88
:104190002093600080E00E94A40D0E94B52083B7A8
:1041A000817F846083BF83B7816083BF7894889563
:1041B00083B78E7F83BF0FB6F894A8958091600077
:1041C000886180936000109260000FBE089508958A
:1041D000CF930E94CE090E94280A0E94E720C0E0E7
:1041E0008C2F0E94E30A892B29F4CF5FC630C1F7D8
:1041F00080E001C081E0CF91089508950C94FD20E6
:104200000E94C7180E94CA120E94A40D0C94FE209E
:104210001F920F920FB60F9211248F939F93AF931B
:10422000BF9380914C02811113C0809183029091C1
:104230008402A0918502B09186024196A11DB11D14
:104240008093830290938402A0938502B0938602A8
:10425000BF91AF919F918F910F900FBE0F901F90C4
:10426000189582E084BD93E095BD9AEF97BD809349
:104270006E0008952FB7F894809183029091840284
:10428000A0918502B09186022FBF08952FB7F894B0
:1042900060918302709184028091850290918602E0
:1042A0002FBF0895CF92DF92EF92FF920F931F934B
:1042B0002FB7F89440918302509184026091850257
:1042C000709186022FBF6A017B01EE24FF248C01CE
:1042D00020E030E0C016D106E206F30610F44150AB
:1042E00051099A01281B390BC9011F910F91FF90A9
:1042F000EF90DF90CF90089578941F920F920FB6B1
:104300000F9211248F939F93AF93BF938091830259
:1043100090918402A0918502B09186020196A11D20
:10432000B11D8093830290938402A0938502B09381
:104330008602BF91AF919F918F910F900FBE0F900A
:104340001F90189581E08093E00080E28093D80070
:104350001092C9008FE19EE40197F1F700C00000C0
:1043600087E090EBDC018093960290939702A093F4
:104370009802B09399029CE088E10FB6F894A89552
:10438000809360000FBE90936000FFCFAF92BF920A
:10439000CF92DF92EF92FF920F931F93CF93C0E0E3
:1043A000CC24C394D12CE82EF12C8C2F0E94E30A4C
:1043B0005C0100E010E09601002E02C0220F331FC6
:1043C0000A94E2F72A213B21232B31F40F5F1F4F80
:1043D0000E30110581F70AC0602F7C2F80E00E940B
:1043E000530FE816F90691F781E004C0CF5FC6309D
:1043F000E1F680E0CF911F910F91FF90EF90DF9059
:10440000CF90BF90AF900895CF93C82F8CE20E94B9
:10441000C621882321F08C2FCF910C94C62180E0F7
:10442000CF910895CF930E948B1F811102C00E94EB
:10443000032082EC95E00E94A208C5E6C15049F035
:104440000E94280A8FE39CE90197F1F700C0000061
:10445000F5CF8BEB95E00E94A20889E20E9404222E
:1044600081110FC18AE20E94042281110E9403205F
:1044700085E00E94042281110E94A2210E94961FC1
:1044800080934B0287E00E9404228823A9F18BE1EC
:104490000E940422882351F080914B0281FB222745
:1044A00020F991E0922790FB81F90EC08EE00E94E6
:1044B0000422882361F080914B0282FB222720F99D
:1044C00091E0922790FB82F980934B0215C080E126
:1044D0000E94042290914B02882341F093FB2227F3
:1044E00020F981E0822780FB93F904C0892F809511
:1044F00080FB90F990934B0280914B020E949A1F8F
:104500000E94A81F90E0909388028093870280EE1B
:104510000E940422882341F080918702982F909571
:1045200090FB80F98093870289E30E94042288230C
:1045300059F08091870281FB222720F991E0922790
:1045400090FB81F98093870282EE0E9404228823E7
:1045500059F08091870282FB222720F991E092276F
:1045600090FB82F98093870286EE0E9404228823C2
:1045700059F08091870283FB222720F991E092274E
:1045800090FB83F98093870283EE0E9404228823A4
:1045900059F08091870284FB222720F991E092272D
:1045A00090FB84F98093870285E30E94042288238C
:1045B00059F08091870285FB222720F991E092270C
:1045C00090FB85F98093870281E30E94042288236F
:1045D00059F08091870286FB222720F991E09227EB
:1045E00090FB86F98093870281E10E940422882350
:1045F00059F08091870287FB222720F991E09227CA
:1046000090FB87F980938702809187020E94AC1FFC
:1046100087E20E940422C82F8EE10E9404228111A9
:10462000C2608FE10E9404228111C46080E20E9476
:1046300004228111C86081E20E9404228111C061BC
:1046400082E20E9404228111C06283E20E9404225D
:104650008111C06484E20E940422882311F0C068A2
:1046600002C0CC2329F08C2F0E94A31F6C2F03C003
:104670000E949F1F682F70E080E090E0CF910C9423
:104680009F1CCF9108958091500280FF0BC06091D4
:10469000050185E0689FB0011124759567957595B2
:1046A00067952BC081FF09C06091050185E0689F77
:1046B000B00111247595679520C082FF07C06091F5
:1046C000050185E0689FB001112417C09091510247
:1046D0009923D1F060910401961788F72091050184
:1046E00085E0289F90011124929FA001939F500D77
:1046F000112470E0CA010E9412336038710540F441
:104700006115710539F002C065E070E0862F0895EB
:104710008FE7089581E008958091500280FF08C0DE
:104720006091030170E0759567957595679521C057
:1047300081FF06C06091030170E07595679519C00F
:1047400082FF04C06091030170E010C0909151029B
:104750009923C1F0609102019617A0F7809103019F
:10476000899FC001112470E00E94123360387105E6
:1047700028F46115710521F0862F08958FE70895BB
:1047800081E0089561E070E0F4CF803F21F40E9461
:104790004323819504C0813F29F40E9443238093E1
:1047A00055020895823F21F40E944323819504C05D
:1047B000833F29F40E944323809354020895893F44
:1047C00019F40E948C2305C08A3F31F40E948C2387
:1047D00081958093560208958B3F21F40E948C238B
:1047E000819504C08C3F29F40E948C23809357024A
:1047F0000895843F21F480915302816017C0853F62
:1048000021F480915302826011C0863F21F480918F
:10481000530284600BC0873F21F48091530288606B
:1048200005C0883F31F48091530280618093530228
:1048300008958D3F21F48091500281600BC08E3F1E
:1048400021F480915002826005C08F3F29F480914D
:1048500050028460809350020895803F39F4809123
:10486000550287FF6CC01092550269C0813F29F440
:10487000809155021816BCF362C090915402823F99
:1048800029F497FF5CC01092540259C0833F19F479
:104890001916CCF354C0893F41F480915602181682
:1048A0000CF04DC0109256024AC08A3F29F4809104
:1048B000560287FF44C0F6CF8B3F39F480915702F0
:1048C00087FF3DC0109257023AC08C3F29F4809177
:1048D00057021816BCF333C0843F21F48091530271
:1048E0008E7F17C0853F21F4809153028D7F11C0C8
:1048F000863F21F4809153028B7F0BC0873F21F4C8
:1049000080915302877F05C0883F31F48091530224
:104910008F7E8093530213C08D3F21F4809150020B
:104920008E7F0BC08E3F21F4809150028D7F05C099
:104930008F3F29F4809150028B7F809350028091A9
:10494000540281110EC08091550281110AC08091DC
:104950005602811106C080915702811102C0109247
:104960005102089580914B0283FF7EC08EEF95E047
:104970000E94A208809153021F928F9389EF95E0C5
:104980009F938F930E943B0987EF95E00E94A208B6
:1049900080915402282F082E000C330B3F938F93E5
:1049A00084EF95E09F938F930E943B0982EF95E0FF
:1049B0000E94A20880915502282F082E000C330B6C
:1049C0003F938F938FEE95E09F938F930E943B09C7
:1049D0008DEE95E00E94A20880915602282F082EA5
:1049E000000C330B3F938F938AEE95E09F938F9348
:1049F0000E943B0988EE95E00E94A2088091570230
:104A0000282F082E000C330B3F938F9385EE95E0F3
:104A10009F938F930E943B0982EE95E00E94A2082B
:104A2000809151021F928F938FED95E09F938F930A
:104A30000E943B098DED95E00E94A20880915002F2
:104A40001F928F938AED95E09F938F930E943B096D
:104A500087ED95E00E94A2088DB79EB74C960FB6E1
:104A6000F8949EBF0FBE8DBF82E592E00E942B138B
:104A70000E943A2190934E0280934D0208951F9315
:104A8000CF93DF9380914D0290914E020E9452216C
:104A9000AC0190915102992321F02091060130E060
:104AA00006C020914F028AE0289F900111244217EE
:104AB000530708F47BC080915402C0915502D091F5
:104AC000560210915702811107C0C1116BC0D1115C
:104AD00069C0111167C06AC09F3F19F09F5F909332
:104AE0005102181624F40E944323809354028091AB
:104AF000540287FF05C00E9443238195809354028E
:104B00001C1624F40E944323809355028091550281
:104B100087FF05C00E944323819580935502309101
:104B200054023323E1F0209155022223C1F045EBDA
:104B30003403C0011124892F990F990B009709F4B0
:104B400081E08093540235EB2303C0011124892FA7
:104B5000990F990B009709F481E0809355021D1677
:104B600024F40E948C23809356028091560287FF82
:104B700005C00E948C23819580935602111624F45F
:104B80000E948C23809357028091570287FF05C0B3
:104B90000E948C23819580935702DF91CF911F91C2
:104BA0000C94B2249F3F09F099CFA1CFDF91CF9110
:104BB0001F910895E2E5F2E086E0DF011D928A95FB
:104BC000E9F71092510210925002089581E298E0A4
:104BD0000E94A2081F9281E08F931F9285E08F931D
:104BE00083ED97E09F938F930E943B090F900F9066
:104BF0000F900F900F900F9008958330E9F128F4F3
:104C0000813061F0823009F10895853009F462C085
:104C100008F449C0863009F474C0089580914F02A9
:104C2000262F30E0280F311D2F3F310524F4680F67
:104C300060934F0203C08FEF80934F0280914F0229
:104C40001F928F938CE097E072C080910601262F0F
:104C500030E0280F311D2F3F310524F4680F609399
:104C6000060103C08FEF80930601809106011F9219
:104C70008F938AEF96E05BC080910501262F30E08C
:104C8000280F311D2F3F310524F4680F6093050173
:104C900003C08FEF80930501809105011F928F93D0
:104CA00087EE96E044C080910401262F30E0280F63
:104CB000311D2F3F310524F4680F6093040103C0B8
:104CC0008FEF80930401809104011F928F9382EDF6
:104CD00096E02DC080910301262F30E0280F311D72
:104CE0002F3F310524F4680F6093030103C08FEF59
:104CF00080930301809103011F928F9389EB96E0CB
:104D000016C080910201262F30E0280F311D2F3F61
:104D1000310524F4680F6093020103C08FEF809384
:104D20000201809102011F928F938EE996E09F937A
:104D30008F930E943B090F900F900F900F90089552
:104D4000833081F128F4813059F08230D1F0089518
:104D5000853009F449C0B8F1863009F456C0089589
:104D600080914F02681720F4861B80934F0202C087
:104D700010924F0280914F021F928F938FE896E01E
:104D800054C080910601681720F4861B80930601A9
:104D900002C010920601809106011F928F938DE749
:104DA00096E043C080910501681720F4861B80932C
:104DB000050102C010920501809105011F928F9399
:104DC0008AE696E032C080910401681720F4861BC1
:104DD0008093040102C010920401809104011F928B
:104DE0008F9385E596E021C080910301681720F438
:104DF000861B8093030102C010920301809103017E
:104E00001F928F938CE396E010C080910201681787
:104E100020F4861B8093020102C01092020180914F
:104E200002011F928F9381E296E09F938F930E94DD
:104E30003B090F900F900F900F900895CF93C82FBC
:104E40001F928F9386E299E09F938F930E943B0974
:104E500081E090E0A0E0B0E0BC01CD0104C0660FAD
:104E6000771F881F991FCA95D2F70E949F1C0F9029
:104E70000F900F900F90CF910C94C718CF938B3158
:104E800009F4CBC108F049C08E3009F4DAC100F54D
:104E9000873009F4A9C1A8F4863009F063C2809173
:104EA0004B02817F8E7F80934B0287ED9AE00E94B8
:104EB000A20884E99EE00E94A20881E08093590242
:104EC00091C1883009F45BC08B3009F487C14AC2B4
:104ED000813109F429C220F4803109F4C6C142C2EB
:104EE000863109F4DDC1893109F03CC288EC9AE0D1
:104EF0000E94A20888E99AE00E94A20889E59AE047
:104F00000E94A2088FE19AE00E94A2088AED99E02F
:104F10000E94A2088CEA99E063C1853309F41EC29D
:104F200068F4873209F41AC228F48E3108F41AC2E0
:104F30008D5115C2893209F411C214C2833438F478
:104F40008A3308F009C2883309F448C10BC283349C
:104F500009F404C2883409F005C20E94C71888E722
:104F60009EE00E94A2089FEF23ED80E39150204035
:104F70008040E1F700C000000E94A22133C188E90F
:104F80009EE00E94A20885EE9DE00E94A2080E9479
:104F90009F1F1F928F9382EE9DE09F938F930E949D
:104FA0003B0980EE9DE00E94A2080E94961FC82F38
:104FB0008DEC9DE00E94A2081F92CF9388EC9DE0AB
:104FC0009F938F930E943B0986EC9DE00E94A2086C
:104FD0008CEB9DE00E94A2088C2F81701F928F9312
:104FE00089EB9DE09F938F930E943B0987EB9DE0A7
:104FF0000E94A2088DEA9DE00E94A208C1FB8827BA
:1050000080F91F928F938AEA9DE09F938F930E946D
:105010003B0988EA9DE00E94A2088CE99DE00E947D
:10502000A208C2FB882780F91F928F9389E99DE02F
:105030009F938F930E943B0987E99DE00E94A208FD
:105040008EE89DE00E94A208C3FBCC27C0F91F9206
:10505000CF938BE89DE09F938F930E943B0989E853
:105060009DE00E94A2080E94A81FC82F85E79DE02E
:105070000E94A2081F92CF9380E79DE09F938F9399
:105080000E943B098EE69DE00E94A20885E59DE016
:105090000E94A2088C2F81701F928F9382E59DE061
:1050A0009F938F930E943B098DB79EB780960FB652
:1050B000F8949EBF0FBE8DBF80E59DE00E94A208C0
:1050C00089E39DE00E94A208C1FB882780F91F9216
:1050D0008F9386E39DE09F938F930E943B0984E327
:1050E0009DE00E94A20882E29DE00E94A208C2FB0D
:1050F000882780F91F928F938FE19DE09F938F9374
:105100000E943B098DE19DE00E94A2088BE09DE09A
:105110000E94A208C3FB882780F91F928F9388E022
:105120009DE09F938F930E943B0986E09DE00E9443
:10513000A2088CEF9CE00E94A208C4FB882780F99B
:105140001F928F9389EF9CE09F938F930E943B095E
:1051500087EF9CE00E94A20885EE9CE00E94A208D6
:10516000C5FB882780F91F928F9382EE9CE09F9366
:105170008F930E943B0980EE9CE00E94A20884EC81
:105180009CE00E94A208C6FB882780F91F928F939B
:1051900081EC9CE09F938F930E943B098FEB9CE0F6
:1051A0000E94A20887EB9CE00E94A208C7FBCC27C4
:1051B000C0F91F92CF9384EB9CE09F938F930E9442
:1051C0003B0982EB9CE00E94A2088DB79EB74C96EB
:1051D0000FB6F8949EBF0FBE8DBF04C08EEF9AE04D
:1051E0000E94A208C1E0C3C080914B02C82FC095A5
:1051F000C170C0FB80F980934B02CC2319F08CE680
:105200009EE0A4C08FE59EE00E94A20880914B0220
:10521000897F877F80934B02E5CF90914B0291FB72
:10522000CC27C0F981E0C827892FC0FB81F9809382
:105230004B02CC2319F082E59EE027C084E49EE077
:10524000CFCF90914B0292FBCC27C0F981E0C827C9
:10525000892FC0FB82F980934B02CC2319F085E3A0
:105260009EE013C085E29EE0BBCF90914B0293FB82
:10527000CC27C0F981E0C827892FC0FB83F9809330
:105280004B02CC2351F089E19EE00E94A20880915C
:105290004B02816080934B026AC08CE09EE0A0CFFD
:1052A0008EE999E00E94A2080E94CA121F928F9371
:1052B00084E899E09F938F930E943B0980911101AC
:1052C0001F928F938DE699E09F938F930E943B09E5
:1052D00080917E021F928F938AE599E09F938F932E
:1052E0000E943B098091870287FB882780F91F92E3
:1052F0008F9382E499E09F938F930E943B090E94D1
:1053000046219F938F937F936F938BE299E09F93B6
:105310008F930E943B098DB79EB746960FB6F894BF
:105320009EBF0FBE8DBF5ECF0E94C71890918702AF
:1053300097FBCC27C0F981E0C827892FC0FB87F9EC
:1053400080938702CC2329F082E09EE00E94A2088D
:105350000EC087EF9DE044CF895301C080E00E94DA
:105360001E2740CF85EF9DE00E94A208C0E08C2F51
:10537000CF91089580E0089580E008958E518A309D
:1053800030F4E82FF0E0EE5EFE4F8081089580E07B
:105390000895CF93C82F80915902813081F020F079
:1053A000823009F44FC041C1E0910001F091010148
:1053B0008081813169F0823209F039C109C0E09100
:1053C0000001F09101018081813111F0823261F49C
:1053D0008C2F0E94BA29811104C08C2F0E943E2775
:1053E0002FC081E090E02CC08C2F0E94BC2981113D
:1053F00026C0C431E1F070F4CB3081F0C031D1F47B
:105400000E94E6258EE199E00E94A20882E0809346
:10541000590215C0C93259F0C83361F487ED9AE0DA
:105420000E94A20882E299E00E94A20808C010929D
:105430005902FFC08CE199E00E94A208FAC081E005
:105440008170F9C0C43218F5CE3108F0BFC0CB303E
:1054500091F1C0F4C73009F0CEC010924F0284E140
:1054600080930601C09305018CE38093040188E0DA
:105470008093030188E28093020182EC97E00E940E
:10548000A208BCC0C33149F1C431C1F0B4C0CB34AF
:1054900009F4A6C028F4C93289F0C83361F0ABC062
:1054A000C13509F49BC0C23509F496C0CE3409F069
:1054B000A2C06AE09BC00E94E625A0C0809158026D
:1054C000882319F01092580299C08FEC97E00E943F
:1054D000A20881E080935902AEC089EA97E00E9459
:1054E000A20887E997E00E94A20880914F021F92CC
:1054F0008F9384E997E09F938F930E943B0982E901
:1055000097E00E94A20880E897E00E94A20880919C
:1055100006011F928F938DE797E09F938F930E94D0
:105520003B098BE797E00E94A2088CE697E00E9477
:10553000A208809105011F928F9389E697E09F93BF
:105540008F930E943B0987E697E00E94A20886E5B8
:1055500097E00E94A208809104011F928F9383E537
:1055600097E09F938F930E943B0981E597E00E940B
:10557000A2088CE397E00E94A208809103011F9289
:105580008F9389E397E09F938F930E943B0987E372
:1055900097E00E94A20880E297E00E94A208809112
:1055A00002011F928F938DE197E09F938F930E944A
:1055B0003B098BE197E00E94A2088DB79EB7489601
:1055C0000FB6F8949EBF0FBE8DBF18C08C2F0E94DF
:1055D000BE298093580212C061E003C061E006C09A
:1055E0006AE0809158020E94FD2508C0809158020F
:1055F0000E94A02603C080EC97E013C0809158025F
:10560000882369F01F928F938AEB97E09F938F9383
:105610000E943B090F900F900F900F9004C087EBF2
:1056200097E00E94A20881E006C01092590280E033
:1056300002C080E005CFCF91089580917D0208954A
:105640009FB7F89410925C029FBF90918D029430A6
:1056500009F057C09091E9009F703091EC00232F22
:10566000217030FD20E8922B23E02093E900209167
:10567000EB0020FF43C02091EE0027FF3FC02091A8
:105680005A02222321F02091E80025FF37C0109212
:105690005A0226E03091E80035FD15C030918D02A8
:1056A000343061F53091EB0035FD28C0215021F4F4
:1056B00081E080935A0222C0EFE9FFE03197F1F7D1
:1056C00000C00000E7CF8093F1008091E80085FDE5
:1056D0000AC08091E80080FFFCCF8091E8008E77BF
:1056E0008093E80006C08FB7F89421E020935C0215
:1056F0008FBF9F709093E90080E008959F70909312
:10570000E9008FEF08950F931F93CF93DF9300D09D
:105710001F92CDB7DEB78C010E944E2E823011F061
:10572000843021F584E089831B830A8382E080939F
:10573000E9008FEF9091E800815095FD06C095ED4E
:105740009A95F1F700008111F5CF8091E80085FF6F
:105750000DC040E050E063E070E0CE0101960E9491
:105760006B2E8091E8008E778093E8000F900F9069
:105770000F90DF91CF911F910F910895CF93DF93F9
:1057800000D01F92CDB7DEB720918D02243031F5C5
:1057900023E02983805891099B838A8382E0809348
:1057A000E9008FEF9091E800815095FD06C095EDDE
:1057B0009A95F1F700008111F5CF8091E80085FFFF
:1057C0000DC040E050E063E070E0CE0101960E9421
:1057D0006B2E8091E8008E778093E8000F900F90F9
:1057E0000F90DF91CF910895CF93DF93EC010E944A
:1057F0004E2E823011F08430F9F482E08093E9007B
:105800009FEF8091E800915085FD06C085ED8A9557
:10581000F1F700009111F5CF8091E80085FF0CC0F1
:1058200040E050E066E070E0CE010E946B2E809177
:10583000E8008E778093E800DF91CF910895CF93B1
:10584000DF93EC010E944E2E823011F08430D9F5A6
:1058500080911101882339F08091870287FF03C06E
:1058600060E282E002C068E081E08093E9008FEFAF
:105870009091E800815095FD06C095ED9A95F1F75D
:1058800000008111F5CF8091E80085FF1CC0809158
:105890001101811105C040E050E068E070E003C0F4
:1058A00070E040E050E0CE010E946B2E8091E80055
:1058B0008E778093E80080E2FE01ADE5B2E00190D2
:1058C0000D928A95E1F7DF91CF91089588EC9EE0E3
:1058D0000E94A20880918C02811109C00E940030B0
:1058E0000E945D308091E20084608093E200089520
:1058F00084EC9EE00E94A20810928C02089580EC35
:105900009EE00C94A2088CEB9EE00C94A20888EB1D
:105910009EE00E94A2080C94002120915B022F5F60
:10592000822F62E30E940633992319F020935B02D1
:10593000089510925B0280915C02882371F180913E
:105940008D02843041F58091E9008F702091EC0048
:10595000922F917020FD90E8892B93E09093E900BD
:105960009091EB0090FF14C09091EE0097FF10C053
:105970009091E80095FF03C01092F100F9CF90914B
:10598000E80090FF05C09091E8009E779093E800B2
:105990008F708093E90010925C02089542E061EC00
:1059A00081E00E947A2F42E261EC82E00E947A2F2D
:1059B00042E261EC83E00C947A2F80918F02833075
:1059C00009F45CC030F4813071F0823009F495C084
:1059D00008958A3009F481C08B3009F467C089309A
:1059E00009F0A3C020C080918E02813A09F09DC0C9
:1059F0008091E800877F8093E800809192029091E7
:105A00009302892B21F460E28DE592E003C060E00F
:105A100080E090E070E00E94B62E8091E8008B77E5
:105A20008093E800089580918E02813209F07DC054
:105A30008091920290919302029708F076C0809133
:105A4000E800877F8093E8008091E80082FD05C030
:105A500080918D028111F8CF68C080911101882357
:105A600029F08091F1008B7F813021F48091F10049
:105A700080937D028091E8008B7753C080918E02E5
:105A8000813A09F052C08091920290919302892B41
:105A900009F04BC08091E800877F8093E8008091F7
:105AA000E80080FFFCCF8091110136C080918E020A
:105AB0008132D9F58091920290919302892BA9F5B8
:105AC0008091E800877F8093E8000E94AF2F80914B
:105AD0009002809311010C94C71880918E0281323C
